:100000000C9447100C9478100C9478100C94781081
:100010000C9478100C9478100C9478100C94781040
:100020000C9478100C9478100C9478100C94781030
:100030000C9478100C9478100C9478100C94781020
:100040000C9478100C9478100C9478100C94781010
:100050000C9478100C9478100C9478100C944BB687
:100060000C9478100C942BB20C9401B20C94781070
:100070000C9478100C9478100C9478100C947810E0
:100080000C9478100C9478100C9478100C947810D0
:100090000C94D7B10C94ADB10C9478100C947810EA
:1000A0000C9478100C9478100C9478100C947810B0
:1000B0000C9478100C9478100C9478100C947810A0
:1000C0000C9478100C9478100C9478100C9483B1E4
:1000D0000C9459B10C9478100C942FB10C9405B178
:1000E0000C94781008000000BE922449123EABAA7E
:1000F000AA2ABECDCCCC4C3E00000080BEABAAAA42
:10010000AA3E00000000BF000000803F0000000089
:1001100000084178D3BB4387D1133D190E3CC3BDC2
:100120004282AD2B3E68EC8276BED98FE1A93E4C6F
:1001300080EFFFBE01C4FF7F3F00000000000C9471
:100140008FBC0C94C7A30C94C8B50C9441450C9477
:100150003B190C9448540C943FBB0C9440A20C9453
:100160000DA30C941FBB0C948F4D0C94A6110C94F2
:100170006E1C0C943C170C941E1E0C9417540C947B
:1001800044540C94A81C0C94A41E0C9414110C94AC
:10019000BE100C94A9A20C94BDA30C9454540C94BE
:1001A000E0BB0C94D8A30C942F110C94C9250C948B
:1001B000D2A30C9448A40C94CFA30C94F0110C94EB
:1001C00000190C94F12B0C94501C0C941A190C94DB
:1001D0007C190C94EF100C94FB160C9431540C9475
:1001E000C3A30C94F81A0C94CE230C94A4180C946A
:1001F00095A20C940D1B0C9451A60C944E1E0C94BD
:1002000041540C9445540C94E2A30C947E540C94E9
:100210005B180C9486230C94D91C0C94791E0C94B6
:10022000F4A30C942BA40C94B4A90C9483170C94F1
:10023000F0A30C94B7A20C94A2110C9450B00C949F
:1002400035540C94BF100C9486A20C9418110C9485
:1002500059A40C94D5100C94AA4F0C94DCA30C94C4
:1002600010110C9493190C949C1F0C944B170C9424
:10027000F8A30C94DDB60C9485230C9451290C94AE
:10028000C4110C94FEA30C949B160C945AA30C94CA
:10029000912E0C94CBA30C940FAA0C943F540C9465
:1002A000461A0C94BF1A0C9447A40C9465A70C949E
:1002B000DBA50C94E8B50C94FA100C949D1A0C94E0
:1002C0004C540C94E6A30C94D9100C94A4110C94E7
:1002D0007A180C94FDA30C9402A40C94EAA30C9439
:1002E00028110C9446A54E414E494E495459494E49
:1002F00046CDCCCC3D0AD7233C17B7D13877CC2B91
:10030000329595E6241FB14F0A000020410000C835
:100310004200401C4620BCBE4CCA1B0E5AAEC59DB6
:100320007400407A10F35A00A0724E18090010A50C
:10033000D4E80000E87648170000E40B54020000FF
:10034000CA9A3B000000E1F5050000809698000085
:100350000040420F000000A08601000000102700AE
:10036000000000E803000000006400000000000A34
:1003700000000000000100000000002C76D888DC9E
:10038000674F0823DFC1DFAE59E1B1B796E5E3E47B
:1003900053C63AE651997696E8E6C28426EB898CF4
:1003A0009B62ED407C6FFCEFBC9C9F40F2BAA56F56
:1003B000A5F490055A2AF75C936B6CF9676DC11B25
:1003C000FCE0E40D47FEF520E6B500D0ED902E03ED
:1003D00000943577050080841E080000204E0A0036
:1003E0000000C80C333333330F986E12831141EF82
:1003F0008D2114893BE65516CFFEE6DB18D1844BE0
:10040000381BF77C1D901DA4BBE424203284725E4F
:10041000228100C9F124ECA1E53D273C61206872EE
:1004200065663D22707269766174652E68746D6CC4
:10043000223E4C6F67696E3C2F613E003C68746DD4
:100440006C3E3C686561643E3C7469746C653E4119
:100450007870657274696E6F204761746577617931
:100460003C2F7469746C653E3C7374796C652074C0
:100470007970653D22746578742F637373223E62D0
:100480006F64797B6261636B67726F756E642D63F5
:100490006F6C6F723A233936636164313B7D3C681F
:1004A000746D6C3E3C686561643E3C7469746C6557
:1004B0003E417870657274696E6F2047617465772C
:1004C0006179202D20557365723C2F7469746C65B9
:1004D0003E3C7374796C6520747970653D22746557
:1004E00078742F637373223E626F64797B626163F9
:1004F0006B67726F756E642D636F6C6F723A233920
:1005000036636164313B7D424F4459207B20666FE6
:100510006E742D66616D696C793A205665726461FE
:100520006E61207D4831207B20666F6E742D73696B
:100530007A653A20313470743B207D5020207B2036
:10054000666F6E742D73697A653A20313070743B32
:10055000207D3C2F7374796C653E3C2F6865616427
:100560003E3C626F64793E00436F6E74656E742D1D
:10057000547970653A20746578742F68746D6C0DC9
:100580000A5757572D41757468656E7469636174B5
:10059000653A204261736963207265616C6D3D222A
:1005A0005765626475696E6F220D0A0D0A3C6831E9
:1005B0003E34303120556E617574686F72697A65AA
:1005C000643C2F68313E005365727665723A20575D
:1005D00065626475696E6F2F312E370D0A004854BD
:1005E00054502F312E302034303120417574686FD3
:1005F00072697A6174696F6E20526571756972658E
:10060000640D0A00496E76657274657220666175C4
:100610006C7400427573204F7665720042757320CA
:10062000556E6465720042757320536F6674204680
:1006300061696C004C696E65204661696C004F50C1
:10064000562053686F727400496E766572746572D5
:1006500020756E69745F766F6C7461676520546F86
:100660006F204C6F7700496E7665727465722075E5
:100670006E69745F766F6C7461676520546F6F206C
:1006800048696768004F7665722054656D706572C1
:1006900061747572650046616E204C6F636B6564B2
:1006A000004261747465727920756E69745F766F4B
:1006B0006C7461676520486967680042617474659D
:1006C0007279204C6F7720416C61726D004F7665B6
:1006D0007263686172676500426174746572792043
:1006E000556E6465722053687574646F776E004F41
:1006F000766572204C6F6164005761726E696E6737
:10070000202D20454550524F4D204661756C740098
:10071000496E766572746572204F766572204375F6
:100720007272656E7400496E7665727465722053DC
:100730006F6674204661696C0053656C6620546571
:100740007374204661696C004F5020444320756EDD
:1007500069745F766F6C74616765204F76657200AF
:1007600042617474206F70656E0043757272656EBD
:10077000742053656E736F72204661696C0042612C
:1007800074746572792053686F7274004661756C79
:1007900074202D2000506F776572204C696D69744C
:1007A00000505620756E69745F766F6C7461676572
:1007B0002048696768004D505054204F7665726C30
:1007C0006F6164204661756C74004D505054204F29
:1007D0007665726C6F6164205761726E696E670036
:1007E0004261747465727920546F6F204C6F77206A
:1007F000666F722043686172005761726E696E673E
:10080000202D20007265736572766564003C687403
:100810006D6C3E3C686561643E3C7469746C653E19
:10082000417870657274696E6F2047617465776195
:1008300079202D2041646D696E3C2F7469746C655C
:100840003E3C6D65746120687474702D65717569C6
:10085000763D22726566726573682220636F6E74DE
:10086000656E743D22313022202F3E3C7374796CCA
:100870006520747970653D22746578742F63737395
:10088000223E626F64797B6261636B67726F756E23
:10089000642D636F6C6F723A233936636164313B48
:1008A0007D236D656E756261727B77696474683AE9
:1008B000313030253B206D617267696E2D6C656645
:1008C000743A6175746F3B20746578742D616C693E
:1008D000676E3A63656E7465723B20206D61726766
:1008E000696E2D72696768743A6175746F3B206D2B
:1008F000617267696E2D746F703A323070783B2088
:100900006865696768743A6175746F3B7D756C20C2
:100910007B746578742D7472616E73666F726D3A54
:100920007570706572636173653B746578742D6171
:100930006C69676E3A206C6566743B646973706CB1
:1009400061793A20696E6C696E653B6D61726769A9
:100950006E3A20303B70616464696E673A203135CD
:10096000707820347078203137707820303B6C6993
:1009700073742D7374796C653A206E6F6E653B2DC0
:100980007765626B69742D626F782D736861646F2F
:10099000773A2030203020357078207267626128E5
:1009A000302C20302C20302C20302E3135293B2D7E
:1009B0006D6F7A2D626F782D736861646F773A205E
:1009C00030203020357078207267626128302C200A
:1009D000302C20302C20302E3135293B626F782D81
:1009E000736861646F773A2030203020357078204A
:1009F0007267626128302C20302C20302C20302E61
:100A00003135293B7D756C206C69207B666F6E7477
:100A10003A20626F6C6420313270782F31387078F0
:100A20002073616E732D73657269663B64697370C0
:100A30006C61793A20696E6C696E652D626C6F63CA
:100A40006B3B6D617267696E2D72696768743A20DD
:100A50002D3570783B706F736974696F6E3A2072D0
:100A6000656C61746976653B70616464696E673A50
:100A7000203135707820323070783B6261636B676B
:100A8000726F756E643A20236637663766373B634C
:100A90006F6C6F723A233661613235643B637572F5
:100AA000736F723A20706F696E7465723B2D776553
:100AB000626B69742D7472616E736974696F6E3ADA
:100AC00020616C6C20302E32733B2D6D6F7A2D744B
:100AD00072616E736974696F6E3A20616C6C20305C
:100AE0002E32733B2D6D732D7472616E7369746950
:100AF0006F6E3A20616C6C20302E32733B2D6F2D5F
:100B00007472616E736974696F6E3A20616C6C20E7
:100B1000302E32733B7472616E736974696F6E3A12
:100B200020616C6C20302E32733B7D756C206C69BB
:100B30003A686F766572207B6261636B67726F756E
:100B40006E643A20233236616265653B636F6C6F79
:100B5000723A20236637663766373B7D424F4459E9
:100B6000207B20666F6E742D66616D696C793A200A
:100B700056657264616E61207D4831207B20666F0E
:100B80006E742D73697A653A20313470743B207429
:100B90006578742D616C69676E3A2063656E746563
:100BA000723B207D4832207B20666F6E742D736906
:100BB0007A653A20313270743B20746578742D6404
:100BC00065636F726174696F6E3A20756E646572E9
:100BD0006C696E65207D4833207B20666F6E742DB6
:100BE00073697A653A20313070743B207D50202043
:100BF0007B20666F6E742D73697A653A2031307090
:100C0000743B207D3C2F7374796C653E3C2F686586
:100C100061643E3C626F64793E00505620456E65CB
:100C20007267793A2000426174742E2044697363BC
:100C300068617267696E6720456E657267793A20F0
:100C400000426174742E204368617267696E672088
:100C5000456E657267793A2000496E7665727465F3
:100C60007220456E657267793A2000206B576800E4
:100C7000414320456E657267793A20002D2D2D2D58
:100C80002D2D2D2D2D2D2D2D2D2D2D2D2D2D2D2D94
:100C90002D2D2D2D2D2D2D2D2D2D2D2D2D2D2D2D84
:100CA0002D2D2D2D2D2D2D2D004F66666C696E6519
:100CB000004D6F64653A2000426174742E206469AF
:100CC000736368617267652043757272656E743A0A
:100CD000200053434320766F6C746167653A2000AF
:100CE000505620766F6C746167653A20005056202C
:100CF000426174742043757272656E743A200020EC
:100D00002500426174742E20636170616369747997
:100D10003A2000204100426174742E2063686172A1
:100D200067696E672063757272656E743A2000425F
:100D30006174742E20766F6C746167653A200020B0
:100D4000570041637469766520506F7765723A2069
:100D50000020487A004772696420667265713A2003
:100D600000205600414320766F6C746167653A201D
:100D7000003C68746D6C3E3C686561643E3C74691F
:100D8000746C653E417870657274696E6F2047615E
:100D90007465776179202D20557365723C2F7469D5
:100DA000746C653E3C6D65746120687474702D656B
:100DB000717569763D22726566726573682220637B
:100DC0006F6E74656E743D22313022202F3E3C736D
:100DD00074796C6520747970653D22746578742F20
:100DE000637373223E626F64797B6261636B6772C7
:100DF0006F756E642D636F6C6F723A233936636161
:100E000064313B7D424F4459207B20666F6E742DC8
:100E100066616D696C793A2056657264616E612015
:100E20007D4831207B20666F6E742D73697A653A38
:100E300020313470743B207D4832207B20666F6EF9
:100E4000742D73697A653A20313270743B20746571
:100E500078742D6465636F726174696F6E3A207582
:100E60006E6465726C696E65207D5020207B206603
:100E70006F6E742D73697A653A20313070743B203F
:100E80007D3C2F7374796C653E3C2F686561643ED0
:100E90003C626F64793E003C666F6E742073697AC1
:100EA000653D22342220636F6C6F723D22626C615B
:100EB000636B223E3C62723E4E657720636F6E66C6
:100EC000696775726174696F6E2073746F7265649F
:100ED00021203C62723E506C6561736520747572AE
:100EE0006E206F666620616E64206F6E20796F756C
:100EF0007220417870657274696E6F206F72207510
:100F000073652074686520726573657420627574FA
:100F1000746F6E213C2F666F6E743E3C62723E00B1
:100F200044484350206C6173742072656E6577206D
:100F300074696D657374616D702028736563290031
:100F4000444843502072656E6577207265747572EF
:100F50006E20636F64652028736563290052656E97
:100F6000657720696E74657276616C20666F722099
:100F70004448435020696E206D696E757465732016
:100F80002831202D20323535293A20003E4F6E0081
:100F90003E4F6666003C696E7075742074797065AA
:100FA0003D22726164696F22206E616D653D22325F
:100FB00033222076616C75653D22005573652044AF
:100FC0004843503A20005765627365727665722017
:100FD000706F72742028312D3635353335293A201B
:100FE00000444E53207365727665723A200047576D
:100FF00020616464726573733A20005375626E6594
:10100000743A2000495020616464726573733A2019
:101010000022206D61786C656E6774683D22322213
:101020002073697A653D2232004D4143206164643A
:10103000726573733A20003C464F524D20616374D1
:10104000696F6E3D2273657475704E6574776F724B
:101050006B2E68746D6C22206D6574686F643D2220
:10106000676574223E003C2F703E3C68323E4E4520
:1010700054574F524B2053455454494E47533C2FDD
:1010800068323E3C703E003C666F6E742073697A35
:10109000653D22342220636F6C6F723D22626C6169
:1010A000636B223E3C62723E4E657720636F6E66D4
:1010B000696775726174696F6E2073746F726564AD
:1010C00021203C62723E3C2F666F6E743E3C627221
:1010D0003E003E54776F003E4F6E650020636865AA
:1010E000636B656420003C696E7075742074797060
:1010F000653D22726164696F22206E616D653D22DB
:1011000036222076616C75653D2200496E766572E7
:10111000746F727320004D51545420506173737773
:101120006F72643A200022206D61786C656E67747E
:10113000683D223230222073697A653D22323000C8
:101140004D51545420557365726E616D653A20009F
:1011500022206D61786C656E6774683D22332220B1
:1011600073697A653D2233004D5154542042726FA9
:101170006B65722049503A20003C464F524D206129
:101180006374696F6E3D2273657475705072656625
:101190006572656E6365732E68746D6C22206D6573
:1011A00074686F643D22676574223E003C2F703E78
:1011B0003C68323E505245464552454E43455320C9
:1011C00053455454494E47533C2F68323E3C703E81
:1011D000003C464F524D20616374696F6E3D22653D
:1011E0006E657267795F312E68746D6C22206D6553
:1011F00074686F643D22676574223E003C2F703E28
:101200003C68323E454E45524749455320313C2FBC
:1012100068323E3C703E003C666F6E742073697AA3
:10122000653D22342220636F6C6F723D22626C61D7
:10123000636B223E3C62723E4E65772076616C7530
:1012400065732073746F72656421203C62723E3C4A
:101250002F666F6E743E3C62723E00426174742E63
:101260002044697363683A20456E6572677900426D
:101270006174742E20436861722E20456E6572671A
:10128000793A2000505620456E657267793A200001
:10129000496E762E20456E657267793A20006B574D
:1012A0006800414320456E657267793A20003C46EC
:1012B0004F524D20616374696F6E3D22656E657299
:1012C00067795F322E68746D6C22206D6574686F6B
:1012D000643D22676574223E003C2F703E3C6832BC
:1012E0003E454E45524749455320323C2F68323ED9
:1012F0003C703E003C666F6E742073697A653D22D7
:10130000342220636F6C6F723D22626C61636B22CA
:101310003E3C62723E4E65772076616C7565732047
:1013200073746F72656421203C62723E3C2F666F5D
:101330006E743E3C62723E003C2F703E3C68333E11
:1013400041444D494E3C2F68333E3C703E00506155
:101350007373776F72643A200022206D61786C6538
:101360006E6774683D223130222073697A653D22B0
:10137000313000557365726E616D653A20003C2F07
:10138000703E3C68333E555345523C2F68333E3CDB
:10139000703E003C464F524D20616374696F6E3D54
:1013A00022736574757050617373776F7264732EF6
:1013B00068746D6C22206D6574686F643D2267658A
:1013C00074223E003C2F703E3C68323E50415353E5
:1013D000574F5244532053455454494E47533C2F82
:1013E00068323E3C703E0044454D4F204D4F4445D1
:1013F0002C20627579206C6963656E736520706C52
:10140000656173652E2E2E3C62722F3E004352435F
:101410002077696C6C2062652063616C63756C6118
:10142000746564206175746F6D61746963616C6C5F
:1014300079003C494E50555420747970653D2273B3
:1014400075626D6974222076616C75653D22534525
:101450004E44223E0022206D61786C656E67746890
:101460003D223530222073697A653D223530004DAA
:101470006573736167653A20003C73656C656374DE
:10148000206E616D653D22696E766572746F7222A1
:101490002069643D22696E766572746F72223E3CEB
:1014A0006F7074696F6E2076616C75653D223122B4
:1014B0003E313C2F6F7074696F6E3E3C2F73656CCC
:1014C0006563743E003C73656C656374206E616D8A
:1014D000653D22696E766572746F72222069643D83
:1014E00022696E766572746F72223E3C6F70746909
:1014F0006F6E2076616C75653D2231223E313C2F46
:101500006F7074696F6E3E3C6F7074696F6E207699
:10151000616C75653D2232223E323C2F6F707469DA
:101520006F6E3E3C2F73656C6563743E0053656C53
:1015300065637420696E766572746F723A20003C40
:10154000464F524D20616374696F6E3D22636F6D2B
:101550006D616E642E68746D6C22206D6574686FA9
:10156000643D22676574223E003C2F703E3C683229
:101570003E434F4D4D414E443C2F68323E3C703E01
:10158000003C464F524D3E00466F722062757920F6
:1015900070726F64756374206B65792C2077726943
:1015A000746520796F75722043505520534E207416
:1015B0006F20656D61696C206A69726B612E6A6962
:1015C0007275746B6140676D61696C2E636F6D2C11
:1015D000207072696365206973203330204555524D
:1015E0002C20492077696C6C20627579206120631A
:1015F0006F66666565203A293C62722F3E003C6644
:101600006F6E742073697A653D22342220636F6C9B
:101610006F723D22626C61636B223E3C62723E4C93
:101620006963656E7365206E6F74206163636570B6
:1016300074656421203C62723E3C2F666F6E743E7E
:101640003C62723E003C494E50555420747970659E
:101650003D227375626D6974222076616C75653DFB
:1016600022534554223E003C2F7461626C653E005B
:101670003C2F74723E003C2F74643E00223E0A00F0
:1016800022206D61786C656E6774683D223422207B
:1016900073697A653D223400222076616C75653D60
:1016A00022003C696E70757420747970653D2274F7
:1016B00065787422206E616D653D22003C74643E45
:1016C000003C74723E003C7461626C653E003C46B6
:1016D0004F524D20616374696F6E3D226C69636582
:1016E0006E73652E68746D6C22206D6574686F640E
:1016F0003D22676574223E003C2F703E3C68333EBD
:1017000052454D41494E20484F555253204F462097
:1017100046554C4C2044454D4F3C2F68333E3C7061
:101720003E003C2F703E3C68333E43505520534EA4
:101730003C2F68333E3C703E003C2F703E3C68328C
:101740003E4C4943454E53453C2F68323E3C703E2B
:101750000055736167653A3C62722F3E476174655C
:10176000776179206265747765656E206F6E65209C
:101770006F722074776F20756E69747320766F6C4A
:1017800074726F6E69637320696E766572746572C8
:101790007320616E6420486F6D65204173736973B7
:1017A00074616E743C62722F3E6279204A6972697C
:1017B000204A697275746B6120323032323C627239
:1017C0002F3E4669726D7761726520766572736926
:1017D0006F6E3A3C62722F3E003C2F703E3C683286
:1017E0003E494E464F524D4154494F4E533C2F684F
:1017F000323E3C703E003C6469762069643D226D57
:10180000656E75626172223E3C756C3E3C6C693E51
:101810003C6120687265663D22707269766174650C
:101820002E68746D6C223E4D41494E3C2F613E3C0A
:101830002F6C693E3C6C693E3C6120687265663D78
:101840002273657475704E6574776F726B2E687451
:101850006D6C223E4E4554574F524B2053455455C4
:10186000503C2F613E3C2F6C693E3C6C693E3C61B4
:1018700020687265663D2273657475705072656686
:101880006572656E6365732E68746D6C223E50528E
:1018900045464552454E4345532053455455503CCB
:1018A0002F613E3C2F6C693E3C6C693E3C61206878
:1018B0007265663D22656E657267795F312E687468
:1018C0006D6C223E454E45524749455320313C2FD1
:1018D000613E3C2F6C693E3C6C693E3C6120687205
:1018E00065663D22656E657267795F322E68746D3C
:1018F0006C223E454E45524749455320323C2F61AC
:101900003E3C2F6C693E3C6C693E3C6120687265D0
:10191000663D22736574757050617373776F72647E
:10192000732E68746D6C223E50415353574F52448E
:10193000533C2F613E3C2F6C693E3C6C693E3C61E0
:1019400020687265663D22636F6D6D616E642E68FE
:10195000746D6C223E434F4D4D414E443C2F613ED1
:101960003C2F6C693E3C6C693E3C61206872656648
:101970003D226C6963656E73652E68746D6C223EE2
:101980004C4943454E53453C2F613E3C2F6C693ECC
:101990003C6C693E3C6120687265663D22696E66FA
:1019A0006F2E68746D6C223E494E464F3C2F613E4F
:1019B0003C2F6C693E3C2F756C3E3C2F6469763E33
:1019C000003C2F703E3C68313E417870657274690E
:1019D0006E6F204761746577617920666F72204869
:1019E0006F6D6520417373697374616E743C2F6809
:1019F000313E3C703E003C68746D6C3E3C686561F5
:101A0000643E3C7469746C653E41787065727469BB
:101A10006E6F2047617465776179202D2041646D78
:101A2000696E3C2F7469746C653E3C7374796C65A7
:101A300020747970653D22746578742F6373732206
:101A40003E626F64797B6261636B67726F756E640F
:101A50002D636F6C6F723A233936636164313B7D5D
:101A6000236D656E756261727B77696474683A3163
:101A70003030253B206D617267696E2D6C65667430
:101A80003A6175746F3B20746578742D616C696779
:101A90006E3A63656E7465723B20206D6172676992
:101AA0006E2D72696768743A6175746F3B206D6161
:101AB0007267696E2D746F703A323070783B2068AF
:101AC00065696768743A6175746F3B7D756C207BDE
:101AD000746578742D7472616E73666F726D3A7589
:101AE00070706572636173653B746578742D616CA9
:101AF00069676E3A206C6566743B646973706C61EB
:101B0000793A20696E6C696E653B6D617267696ECA
:101B10003A20303B70616464696E673A20313570F9
:101B20007820347078203137707820303B6C6973BE
:101B3000742D7374796C653A206E6F6E653B2D77EA
:101B400065626B69742D626F782D736861646F775D
:101B50003A2030203020357078207267626128305A
:101B60002C20302C20302C20302E3135293B2D6D6F
:101B70006F7A2D626F782D736861646F773A2030C9
:101B8000203020357078207267626128302C203038
:101B90002C20302C20302E3135293B626F782D736C
:101BA0006861646F773A2030203020357078207279
:101BB00067626128302C20302C20302C20302E31D0
:101BC00035293B7D756C206C69207B666F6E743A9D
:101BD00020626F6C6420313270782F313870782039
:101BE00073616E732D73657269663B646973706CA3
:101BF00061793A20696E6C696E652D626C6F636BFA
:101C00003B6D617267696E2D72696768743A202D49
:101C10003570783B706F736974696F6E3A207265C6
:101C20006C61746976653B70616464696E673A20C3
:101C30003135707820323070783B6261636B677247
:101C40006F756E643A20236637663766373B636F7D
:101C50006C6F723A233661613235643B637572731F
:101C60006F723A20706F696E7465723B2D77656292
:101C70006B69742D7472616E736974696F6E3A204A
:101C8000616C6C20302E32733B2D6D6F7A2D747227
:101C9000616E736974696F6E3A20616C6C20302ECE
:101CA00032733B2D6D732D7472616E736974696F3D
:101CB0006E3A20616C6C20302E32733B2D6F2D7488
:101CC00072616E736974696F6E3A20616C6C20305A
:101CD0002E32733B7472616E736974696F6E3A2051
:101CE000616C6C20302E32733B7D756C206C693AD0
:101CF000686F766572207B6261636B67726F756E69
:101D0000643A20233236616265653B636F6C6F72A3
:101D10003A20236637663766373B7D424F44592069
:101D20007B20666F6E742D66616D696C793A205602
:101D3000657264616E61207D4831207B20666F6E24
:101D4000742D73697A653A20313470743B20746560
:101D500078742D616C69676E3A2063656E74657284
:101D60003B207D4832207B20666F6E742D73697A2C
:101D7000653A20313270743B20746578742D646547
:101D8000636F726174696F6E3A20756E6465726C10
:101D9000696E65207D4833207B20666F6E742D73DD
:101DA000697A653A20313070743B207D5020207B69
:101DB00020666F6E742D73697A653A2031307074C5
:101DC0003B207D3C2F7374796C653E3C2F686561C8
:101DD000643E3C626F64793E003C2F626F64793EE2
:101DE0003C2F68746D6C3E004854545020343030A1
:101DF000202D204241442052455155455354004323
:101E00006F6E74656E742D547970653A20746578C0
:101E1000742F68746D6C0D0A0D0A3C68313E455094
:101E20004943204641494C3C2F68313E00485454B8
:101E3000502F312E302034303020426164205265E2
:101E400071756573740D0A004163636573732D4387
:101E50006F6E74726F6C2D416C6C6F772D4F726961
:101E600067696E3A202A0D0A436F6E74656E742D91
:101E7000547970653A2000485454502F312E302048
:101E8000323030204F4B0D0A0000557365722D61C2
:101E900067656E743A202A0D0A446973616C6C6F31
:101EA000773A202F0D0A007D002C227377223A22E8
:101EB000002C226E616D65223A22002C226D646C2A
:101EC000223A22002C226D66223A220022007B2236
:101ED000696473223A22002F002F0022002C227501
:101EE0006E69715F6964223A22005F002C2261767C
:101EF00074795F74223A22002C22646576223A00BB
:101F00002C226465765F636C61223A22002273742E
:101F100061745F74223A22007D002C226E616D652F
:101F2000223A22007B002C226963223A22002C22D2
:101F3000756E69745F6F665F6D656173223A22002A
:101F40002C226465765F636C61223A2200227374EE
:101F500061745F74223A22000000210024002700EF
:101F60002A002D00300033000101000004010701A8
:101F70000A0100002200250028002B002E0031005D
:101F8000340002010000050108010B0100002000DF
:101F90002300260029002C002F0032000001000041
:101FA00003010601090105050505070508080808DC
:101FB000020202020A0A08080404040401010101E1
:101FC00001010101030303030303030304070707DC
:101FD0000C0C0C0C0C0C0C0C020202020606060681
:101FE000060606060B0B0B0B0B0B0B0B010210204E
:101FF000200808102040102040800201020108043F
:1020000002010102040810204080804020100804D2
:10201000020180040201804020100804020108042B
:10202000020101020408102040800102040810206F
:10203000408000000A0B02090C0D0E080703040182
:102040000000000000000000000000000000000090
:10205000000000000000000000000000000012115D
:102060001000000000000000000000000000000060
:1020700000000000000000003031323334353637C4
:10208000383961626364656600008FBCE0BB11246F
:102090001FBECFEFD1E2DEBFCDBF00E00CBF11E12C
:1020A000A0E0B2E0ECEEF6EB01E00BBF02C007905F
:1020B0000D92AE3BB107D9F72AE1AEEBB1E101C019
:1020C0001D92A53FB207E1F710E1C6E4D0E100E0C0
:1020D00006C021970109802FFE010E94A8D8C534AF
:1020E000D10780E00807A9F70E944EC10C9464DB79
:1020F0000C940000FC0120812EBD9B012150310970
:1021000041F051810DB407FEFDCF4EB55EBD419348
:10211000F5CF61507109860F971F0DB407FEFDCFF3
:102120002EB5FC0120830895E091D411F091D511D2
:1021300080819091D311892B80830895E091D411EF
:10214000F091D51190818091D3118095892380835E
:1021500008958EBD00000DB407FEFDCF8EB5089525
:1021600090E020914A13233339F40C96982F990F5D
:10217000990F990F80E008954896F8CF0895CF936E
:10218000DF931F92CDB7DEB76983DC01ED91FC913F
:102190000280F381E02D41E050E0BE016F5F7F4F90
:1021A00019950F90DF91CF910895FC01818D928D4B
:1021B0000895CF93DF931F92CDB7DEB76983DC011B
:1021C000ED91FC910280F381E02D41E050E0BE01F1
:1021D0006F5F7F4F19950F90DF91CF910895FC01AC
:1021E0009485FB018485981303C081E0983008F042
:1021F00080E00895CF93DF931F92CDB7DEB7698358
:10220000DC01ED91FC910280F381E02D41E050E092
:10221000BE016F5F7F4F19950F90DF91CF910895A9
:10222000FC01848595850895FC018489958908952C
:1022300028E133E0FC0131832083FB01408951898F
:1022400062897389FC014283538364837583089593
:10225000DC01ED91FC91048CF58DE02D1994CF9269
:10226000DF92EF92FF920F931F93CF93DF93CDB73F
:10227000DEB7AF970FB6F894DEBF0FBECDBF7C01BF
:102280006A0108E113E01A8309831C861B8688EE25
:1022900093E0A0E0B0E08D879E87AF87B88B8DE399
:1022A00092E09A878987188F0F8B198E1A8E1B8E52
:1022B0001C8E88E089A31BA70AA71CA61DA61EA624
:1022C0001FA68091C3159091C415A091C515B0911A
:1022D000C6158EA39FA3A8A7B9A78B839C83AD83A4
:1022E000BE8318861F82AE01465D5F4FCE01019608
:1022F0000E941BB381309105B1F4D701ED91FC919F
:102300000488F589E02D1DA30CA38CA59DA5AEA581
:10231000BFA58EA39FA3A8A7B9A7A601BE016C5D08
:102320007F4FC7011995AF960FB6F894DEBF0FBE69
:10233000CDBFDF91CF911F910F91FF90EF90DF9074
:10234000CF9008950C9453D90C9453D90F931F93A5
:10235000CF93DF93EC018B010E94DE560230110512
:1023600071F068EE7DE1CE010E94935669ED7DE14A
:10237000CE01DF91CF911F910F910C949356DF9175
:10238000CF911F910F9108950F931F93CF93DF93D8
:10239000EC018B0150E040E06AE173E00E94AC5632
:1023A00002301105C1F06CE374E0CE010E94935637
:1023B00061EC79E1CE010E9493566BE174E0CE01AD
:1023C0000E94935669ED7DE1CE01DF91CF911F917F
:1023D0000F910C949356DF91CF911F910F91089517
:1023E0000F931F93CF93DF93EC018B0150E040E0FC
:1023F0006AE173E00E94AC560230110589F166EF84
:1024000079E1CE010E94935661EC79E1CE010E9400
:10241000935666EF77E1CE010E94935669ED77E11E
:10242000CE010E94935663E373E0CE010E94D0B0C8
:1024300061E577E1CE010E94935669E373E0CE0136
:102440000E94D0B063E373E0CE010E94D0B069ED8A
:102450007DE1CE01DF91CF911F910F910C949356A6
:10246000DF91CF911F910F910895BC018DE493E10D
:102470000E94D0B06FEF70E08DE493E10E94AFAAAC
:102480006FEF70E08DE493E10E94AFAA6FEF70E010
:102490008DE493E10E94AFAA8DE493E10E945AA3D8
:1024A00064E170E080E090E00C94DDB2AF92BF9206
:1024B000CF92DF92EF92FF920F931F93CF93DF9310
:1024C00000D01F92CDB7DEB78C016B017A018091ED
:1024D0004A138333E9F45B016801C40ED51EC016AC
:1024E000D106A9F10E949E108FE00E94A910812FB1
:1024F0000E94A910802F0E94A9100F5F1F4F80E03B
:102500000E94A910F50181935F010E949410E7CF0A
:10251000843369F50E949E1019830A838F2D8F776B
:102520008B83EC8264E070E0CE0101960E947A1009
:10253000A70170E060E0C6010E94EADAE114F1044C
:1025400021F0B701C6010E947A100E949410C701C1
:102550000F900F900F900F90DF91CF911F910F91DF
:10256000FF90EF90DF90CF90BF90AF9008950E94C2
:102570009E100F3F110509F030F419820A831B8267
:1025800063E070E0D1CF17FD0BC019820A8333E0FE
:10259000169507953A95E1F7007E08600B83F0CF1A
:1025A000C80126E0969587952A95E1F7807E1983E4
:1025B0000A830115104C18F480618B83E1CF886188
:1025C000FCCFCF93DF931F92CDB7DEB72091D71109
:1025D00030E0322F2227260F371F90E0982F8827D0
:1025E00041E050E0BE016F5F7F4F820F931F0E945A
:1025F000561289810F90DF91CF910895CF93DF9389
:102600001F92CDB7DEB741E050E0BE016F5F7F4F54
:1026100090E080E00E94561289810F90DF91CF9167
:102620000895CF93DF93C4E1D0E00E94FE12882387
:1026300061F061E070E080E090E00E94DDB22197FF
:10264000A1F780E0DF91CF91089581E0FBCFAF92B9
:10265000BF92CF92DF92EF92FF920F931F93CF938F
:10266000DF9300D000D01F921F92CDB7DEB78C0150
:102670007B016A0180914A138333E1F45801A40E6F
:10268000B51EA016B10609F46FC00E949E1080EF1F
:102690000E94A910812F0E94A910802F0E94A910CA
:1026A0000F5F1F4FF70181917F010E94A9100E94C7
:1026B0009410E7CF5B01A40EB51E8433C1F40E94D1
:1026C0009E1019830A838D2D80688B83CC8264E0F1
:1026D00070E0CE0101960E947A10AE14BF0409F496
:1026E00041C0F70181917F010E94A910F6CF0E949D
:1026F0009E100F3F110509F028F419820A8384E027
:102700008B830CC017FD17C019820A8333E016951E
:1027100007953A95E1F7007E0C600B8386E0C816BA
:10272000D104A0F5F701DE011496EA15FB0599F036
:1027300081918D93FACFC80126E0969587952A95C9
:10274000E1F7807E19830A830115104C10F484612F
:10275000D7CF8C61D5CFB6016D5F7F4FCE0101968B
:102760000E947A100E949410C60128960FB6F89421
:10277000DEBF0FBECDBFDF91CF911F910F91FF90B4
:10278000EF90DF90CF90BF90AF90089563E070E03E
:10279000CE0101960E947A10F70181917F010E947B
:1027A000A910AE14BF04C1F7DDCFCF93DF931F9202
:1027B000CDB7DEB7898341E050E0BE016F5F7F4F48
:1027C00090E080E00E9427130F90DF91CF91089551
:1027D00063E070E00C94E112DA01E091D711F0E0CF
:1027E000FE2FEE27E60FF71F90E0982F8827A9010C
:1027F000BD018E0F9F1F0C942713CF93DF931F9261
:102800001F92CDB7DEB779836A8322E030E0AE0154
:102810004F5F5F4F60E170E00E94EC130F900F90EC
:10282000DF91CF910895CF93DF931F921F92CDB781
:10283000DEB779836A8322E030E0AE014F5F5F4FFD
:1028400064E070E00E94EC130F900F90DF91CF9145
:102850000895CF93DF931F92CDB7DEB72091D711A4
:1028600030E0322F2227260F371F90E0982F88273D
:10287000498341E050E0BE016F5F7F4F820F931F9D
:102880000E9427130F90DF91CF910895CF93C82F07
:10289000462F61E070E00E94291461E070E08C2F07
:1028A0000E94E1128111F9CFCF910895DA01E091F0
:1028B000D711F0E0FE2FEE27E60FF71F90E0982FDC
:1028C0008827A901BD018E0F9F1F0C9456126F928D
:1028D0007F929F92AF92BF92CF92DF92EF92FF9240
:1028E0000F931F93CF93DF931F921F92CDB7DEB745
:1028F000982E8B013A01690122E030E0AE014F5F72
:102900005F4F64E270E00E945614E980FA80FE2472
:10291000EF24FE24E00EF11E9701377040914A1318
:10292000092D10E0C801433309F04CC00896982FD8
:102930008827990F990F990F820F931F473309F436
:1029400046C0A9014C0D5D1D4130584008F43FC000
:1029500060E078E05B01A21AB30AA501B3010E940E
:102960002713A6014A195B09B3016A0D7B1D8091EB
:102970004A13833349F5085F1F4F000F000F000F04
:1029800080E0902F0E942713EC0CFD1CF982EA8254
:1029900022E030E0AE014F5F5F4F64E270E0892DCE
:1029A0000E94EC130F900F90DF91CF911F910F9128
:1029B000FF90EF90DF90CF90BF90AF909F907F906F
:1029C0006F9008954096B3CF005F1F4FD6CFA601FA
:1029D000B301D8CFEF92FF921F93CF93DF931F9253
:1029E0001F92CDB7DEB7182F22E030E0AE014F5F67
:1029F0005F4F60E270E00E945614E980FA80FE2486
:102A0000EF24FE2422E030E0AE014F5F5F4F60E232
:102A100070E0812F0E94561489819A819827892716
:102A20009827E816F90689F487E0189FF001112429
:102A3000EE5FFC4EF582E482C7010F900F90DF91AC
:102A4000CF911F91FF90EF9008957C01DBCFFF9213
:102A50000F931F93CF93DF931F921F92CDB7DEB7D3
:102A6000F82E22E030E0AE014F5F5F4F66E270E08B
:102A70000E94561409811A8110270127102722E08D
:102A800030E0AE014F5F5F4F66E270E08F2D0E9435
:102A9000561489819A81982789279827081719073A
:102AA00049F4C8010F900F90DF91CF911F910F91C2
:102AB000FF9008958C01E3CF44E050E0BC018FE02B
:102AC00090E00C94271344E050E0BC0185E090E0D6
:102AD0000C94271344E050E0BC0181E090E00C949A
:102AE000271308951F93CF93DF931F921F92CDB7A3
:102AF000DEB760E372E080E090E00E94DDB21FB7D5
:102B0000F8948091D611811127C0EBEDFFE18491FB
:102B1000E1E2F0E29491E82FF0E0EE0FFF1FE85AB7
:102B2000F04EA591B491EC91E92321F461E085E3A5
:102B30000E947EB261E085E30E94ACB28CB58061F8
:102B40008CBD8CB580648CBD61E084E30E94ACB226
:102B500061E083E30E94ACB28091D6118F5F8093D5
:102B6000D6111FBFE0EBFFE1E491F0E0EE0FFF1F95
:102B7000EE58F04E859194919093D5118093D41195
:102B8000E6EFFFE1E491E093D31161E08AE00E9477
:102B9000ACB20E94941080E591E00E9455AA84E3B3
:102BA00080934A1380E80E94D5130E941113882352
:102BB000C1F188E00E94D5130E94FE12883089F589
:102BC00080E10E94D5130E94FE12803151F580E011
:102BD0000E94D5130E94FE12182F811122C041E0DD
:102BE00050E0BE016F5F7F4F8FE190E00E94561270
:102BF00089818330B1F480E48093D71142E06EE1A3
:102C000070E0812F0E94291442E06FE170E0812F73
:102C10000E9429141F5F183089F781E080934B13BD
:102C20006AC087E380934A1380E80E94D5130E940C
:102C30001113882329F188E00E94D5130E94FE1207
:102C40008830F1F480E10E94D5130E94FE12182F03
:102C50008031B1F480E00E94D5130E94FE128111F0
:102C60000FC041E050E0BE016F5F7F4F89E390E00D
:102C70000E9456128981843019F41093D711CDCF58
:102C800083E380934A1380E80E94D5130E941113B6
:102C9000882371F180E10E94D5130E94FE128031D9
:102CA00039F582E10E94D5130E94FE12823101F5AE
:102CB00080E00E94D5130E94FE12811119C084E0A9
:102CC0008093D71115E51A8341E050E0BE016E5F95
:102CD0007F4F8BE190E00E942713198341E050E081
:102CE000BE016F5F7F4F8AE190E00E94271395CF6E
:102CF00010924A1380E00F900F90DF91CF911F91B7
:102D000008951F93CF93DF93182F80E591E00E94E1
:102D100055AA812F0E94EA14EC01812F0E94E8132A
:102D2000873121F08C3111F0D0E0C0E0CE01DF918D
:102D3000CF911F910895FC018485883010F40C9484
:102D4000811690E080E00895CF92DF92EF92FF929B
:102D50001F93CF93DF93182F7B01EA014130584036
:102D600010F0C0E0D8E080E591E00E9455AA812FE4
:102D70000E94EA146C01812F0E94E813873111F040
:102D80008C3121F5CC16DD0670F380E591E00E94D0
:102D900055AA9E01A70170E060E0812F0E94671490
:102DA00060E270E0812F0E94461462E070E0812FA3
:102DB0000E94E11284FD0DC0812F0E94E813882338
:102DC000B9F080E591E00E9455AAEFCFD0E0C0E0D5
:102DD000DCCF40E162E070E0812F0E942914CE0137
:102DE000DF91CF911F91FF90EF90DF90CF900895EA
:102DF000D0E0C0E0F4CF0F931F93CF93DF938C010B
:102E0000EA01FC018485883048F40E94A416892BCD
:102E100039F481E090E0F80193838283D0E0C0E050
:102E2000CE01DF91CF911F910F9108951F93CF9302
:102E3000DF931F92CDB7DEB7182F80E591E00E9497
:102E400055AA812F0E94B01027E0129FF001112493
:102E5000EE5FFC4E22813381377041E050E0BE01CD
:102E60006F5F7F4F820F931F0E94561289810F90D0
:102E7000DF91CF911F910895FC01808D883040F43F
:102E8000218D328D232B21F00E94161790E008959A
:102E90008FEF9FEF0895CF93DF93FC0124852830B7
:102EA00028F08FEF9FEFDF91CF910895EC01019013
:102EB000F081E02D0084F185E02D1995892B89F3AF
:102EC0008C850E94161790E0EECF1F93CF93DF936F
:102ED000182F87E0189FE0011124CE5FDC4E888117
:102EE0009981009761F480E591E00E9455AA812FB5
:102EF0000E9427152E81821B910999838883DF9177
:102F0000CF911F910895FC018485883010F40C94B2
:102F1000651790E080E008954F925F927F928F92C4
:102F20009F92AF92BF92CF92DF92EF92FF920F9358
:102F30001F93CF93DF931F921F92CDB7DEB7782EEA
:102F40006B014A01A82EB12C27E0829FC0011124F9
:102F5000FC01EE5FFC4E7F010081118180E591E074
:102F60000E9455AA0815190554F4872D0E942715AB
:102F7000F70126818C01021B1109118300830115C1
:102F8000110519F5872D0E94E813843159F0882323
:102F900049F001E010E08C3111F410E000E01195EF
:102FA00001951109C8010F900F90DF91CF911F91EA
:102FB0000F91FF90EF90DF90CF90BF90AF909F90D8
:102FC0008F907F905F904F900895801691060CF43B
:102FD000840187E08A9DF0018B9DF00D1124EE5F46
:102FE000FC4EE280F380C114D10451F12701F7E0D7
:102FF0005F22872D0E94B010840D951D20914A13E9
:10300000273309F453C09801240D351D2130384071
:1030100008F44CC020E038E0490184189508A40168
:10302000B6010E9456122601480C591C6801C818A6
:10303000D908872D0E94B010A601B2010E94561235
:10304000E00EF11E87E08A9DF0018B9DF00D1124AA
:10305000EE5FFC4EF382E28220813181201B310B36
:10306000318320838681800F912F911D8A3F9105A6
:1030700010F4232BF1F487E08A9DF0018B9DF00D75
:103080001124EE5FFC4E1682F982EA8222E030E0E3
:10309000AE014F5F5F4F68E270E0872D0E94EC1336
:1030A00060E470E0872D0E9446147CCFA801B60131
:1030B000C5CF868377CFCF93DF93FC01218D328DEF
:1030C0002115310529F48FEF9FEFDF91CF910895FE
:1030D000EC01808D4217530708F0A9010E948C175C
:1030E0001816190684F7298D3A8D281B390B3A8F4B
:1030F000298FEBCF0F931F93CF93DF931F92CDB701
:10310000DEB7FC01218D328D232B41F48FEF9FEF31
:103110000F90DF91CF911F910F9108958C0141E0A5
:1031200050E0BE016F5F7F4FFC01808D0E948C17C5
:10313000181619065CF7F801818D928D0197928F10
:10314000818F898190E0E4CF0F931F93CF93DF931A
:1031500000D000D01F921F92CDB7DEB78C01D801EE
:1031600059964D915C915A974115510551F0ED9149
:10317000FC91048CF58DE02D70E060E0C80119959C
:10318000EECFF801808D0E946517892BB1F148E0E0
:1031900050E0BE016F5F7F4FD80158968C910E941E
:1031A0008C1718161906F4F4D801509684E0FE0125
:1031B000319601900D928A95E1F78D8190E0982FDC
:1031C00088272E81820F911DF801958B848B8F812A
:1031D000282F30E0322F22278885820F932F911DD0
:1031E000928F818F28960FB6F894DEBF0FBECDBFA9
:1031F000DF91CF911F910F91089590E080E0F2CF81
:10320000CF93DF931F92CDB7DEB741E050E0BE0110
:103210006F5F7F4FFC0184850E948C17181619067A
:1032200034F4898190E00F90DF91CF9108958FEF72
:103230009FEFF9CFFC018485883010F40C948C1733
:1032400090E080E00895CF93C82F80E591E00E9440
:1032500055AA68E070E08C2FCF910C944614CF9360
:10326000C82F80E591E00E9455AA60E170E08C2FA4
:10327000CF910C944614CF92DF92EF92FF920F936E
:103280001F93CF93DF9300D000D0CDB7DEB78C0172
:103290006B017A01FC01808D883010F40E942F1997
:1032A00088E193E09A838983F60182819381A481E6
:1032B000B5818B839C83AD83BE83B701CE0101961C
:1032C0000E9426ACF801808F8830A0F4F586E48651
:1032D000128E118E81E026960FB6F894DEBF0FBED7
:1032E000CDBFDF91CF911F910F91FF90EF90DF90B5
:1032F000CF90089580E0EFCFCF93DF93EC01888DDE
:10330000883020F40E942F1988E0888FDF91CF91B8
:103310000895CF93C82F80E591E00E9455AA8C2F85
:10332000CF910C94E813EF92FF920F931F93CF93DA
:10333000DF937C0180914A13D4E0833309F0D8E015
:103340000AE313E1C0E0F801219131918F01F70107
:10335000848195812817390729F0CF5FDC13F3CFDB
:1033600080E006C08C2F0E9489198431B1F781E07A
:10337000DF91CF911F910F91FF90EF9008959F9251
:10338000AF92BF92CF92DF92EF92FF920F931F9373
:10339000CF93DF93EC017B0180914A13811121C00F
:1033A0001B821A8288EE93E0A0E0B0E08C839D83BC
:1033B000AE83BF838AEE92E09983888388E08C870E
:1033C00088EE93E09E878D87CE01DF91CF911F918C
:1033D0000F91FF90EF90DF90CF90BF90AF909F90B4
:1033E000089534E0932E833311F028E0922E8AE37F
:1033F000C82E83E1D82E10E098E0B92EA12CD6017A
:103400002D913D916D01F701848195812817390730
:1034100091F4812F0E948919082F873111F08C3186
:1034200039F5812F0E946517892B59F50C3119F454
:10343000812F0E9423191F5F9112E1CFA11008C0B4
:10344000D701ED91FC910084F185E02DC70119951C
:103450001B821A8288EE93E0A0E0B0E08C839D830B
:10346000AE83BF838AEE92E099838883BC86A8CF1F
:10347000843149F08111DFCFF60132971182108239
:10348000DACFB12ED8CFAA24A394D5CF8F929F9212
:10349000AF92BF92CF92DF92EF92FF920F931F9362
:1034A000CF93DF93CDB7DEB72F970FB6F894DEBF7B
:1034B0000FBECDBF5C014B017A0180914A13882376
:1034C000C9F104E0833309F008E0B501CE010196AB
:1034D0000E94BF198AE3C82E83E1D82E10E0F601BE
:1034E000219131916F01F501848195812817390768
:1034F00051F4812F0E948919873129F4A701B40161
:10350000812F0E94A4161F5F0113E9CFC7012F96D8
:103510000FB6F894DEBF0FBECDBFDF91CF911F91E4
:103520000F91FF90EF90DF90CF90BF90AF909F9062
:103530008F900895F12CE12CE9CFCF93DF93EC012C
:103540008C858830D0F40E948919843189F08823D1
:1035500079F0883169F021E08C3159F4E881F98102
:103560000084F185E02DCE01199521E0892B09F425
:1035700020E0822FDF91CF91089580E0FBCFCF92A2
:10358000DF92EF92FF92CF93DF93EC018C8588302E
:1035900068F40E9423190E940FB36B017C018C8593
:1035A0000E948919811109C088E08C87DF91CF9131
:1035B000FF90EF90DF90CF90089561E070E080E0A1
:1035C00090E00E94DDB20E940FB3AB01BC014C1928
:1035D0005D096E097F098D859E85B0E0A0E04817E2
:1035E00059076A077B07D8F28C850E942F19DCCF18
:1035F000CF93DF93EC018C85883060F40E948919A9
:10360000873111F08C3131F48C850E94811681153F
:10361000984088F3DF91CF910895CF92DF92EF9297
:10362000FF920F931F93CF93DF93CDB7DEB7AF9782
:103630000FB6F894DEBF0FBECDBF8C016B017A01CF
:1036400088E193E09A8389831B821C821D821E82FB
:103650001C861B8648EE53E060E070E04D875E8775
:103660006F87788B2DE332E03A872987988F8F8B8D
:10367000198E1A8E1B8E1C8E28E029A39BA78AA761
:103680001CA61DA61EA61FA6D8011C968C918830CC
:1036900060F40E948919882321F0F80184850E9432
:1036A000231988E0D8011C968C938091C3159091C2
:1036B000C415A091C515B091C6158EA39FA3A8A748
:1036C000B9A78B839C83AD83BE8318861F82AE010E
:1036D000465D5F4FB601CE0101960E941BB3009775
:1036E000C1F0D801ED91FC910684F785E02D88E1C9
:1036F00093E09DA38CA38CA59DA5AEA5BFA58EA38D
:103700009FA3A8A7B9A7A701BE016C5D7F4FC80101
:103710001995AF960FB6F894DEBF0FBECDBFDF91FF
:10372000CF911F910F91FF90EF90DF90CF90089570
:103730008F929F92AF92BF92CF92DF92EF92FF92C1
:103740000F931F93CF93DF9300D000D000D01F9230
:10375000CDB7DEB790914A13911115C018E0812FB3
:103760002A960FB6F894DEBF0FBECDBFDF91CF9182
:103770001F910F91FF90EF90DF90CF90BF90AF908F
:103780009F908F90089528E0F22E933311F494E0E7
:10379000F92E6B01082F80E591E00E9455AA9E0149
:1037A0002F5F3F4F5901490110E0812F0E94E8131C
:1037B000F40181934F018823C1F01F5FF112F5CF0F
:1037C000F12CF50191915F019D3149F0983139F06B
:1037D0009A51923020F0F3941F11F3CFBFCF60E1E4
:1037E00070E08F2D0E9446141F2DE12EF12CF70161
:1037F000EE0FFF1FE65CFC4E1182108283EE93E019
:103800000197F1F7402F70E060E0812F0E942914AA
:103810004FEF62E070E0812F0E942914B601CD289D
:1038200089F4809100029091010201968115F0ECDB
:103830009F0798F19093010280930002609100022B
:1038400070910102812F0E94131461E070E0812FBA
:103850000E94461427E02E9DC0012F9D900D11243B
:103860009C012E5F3C4E7901F9011182108222E009
:1038700030E0AE01475F5F4F68E270E0812F0E9449
:10388000561489859A85982789279827F701938365
:10389000828316821582148262CF80E090ECCACFB8
:1038A0000F931F93CF93DF93EC018B01888D8830AA
:1038B00010F40E942F19B80182E00E94981B888F93
:1038C000883050F41D870C871A8E198E81E0DF91A5
:1038D000CF911F910F91089580E0F9CF9F92AF9201
:1038E000BF92CF92DF92EF92FF920F931F93CF93ED
:1038F000DF938C015B01942EE52EFC01C688D788EE
:10390000F08C80E591E00E9455AA8F2D0E94EA1468
:10391000C92DDE2D8C179D0708F4EC019E01A50131
:10392000B6018F2D0E946714F801868997898C0F44
:103930009D1F978B868BCE01DF91CF911F910F91A9
:10394000FF90EF90DF90CF90BF90AF909F90089541
:10395000CF93FC01C08D80E591E00E9455AA60E202
:1039600070E08C2F0E94461462E070E08C2F0E9461
:10397000E11284FD16C062E070E08C2F0E94E1121B
:1039800083FF0AC048E162E070E08C2F0E94291496
:1039900080E090E0CF91089580E591E00E9455AAE3
:1039A000E3CF40E162E070E08C2F0E94291481E0B7
:1039B000F0CFFF920F931F93CF93DF93EB01FC01A6
:1039C000178A168A2A81211109C02B81211106C06C
:1039D0002C81211103C02D81222301F141155105B4
:1039E000E9F08A01FC01F08C80E591E00E9455AA83
:1039F000AE014E5F5F4F24E030E06CE070E08F2D51
:103A00000E94EC13B8018F2D0E94FD1381E090E01D
:103A1000DF91CF911F910F91FF90089580E0F7CF34
:103A20007F928F929F92AF92BF92CF92DF92EF924E
:103A3000FF920F931F93CF93DF93CDB7DEB7A69777
:103A40000FB6F894DEBF0FBECDBF8C01762E942E3C
:103A5000852E20E2A22ECE0101967C01DC01EA2D0A
:103A60001D92EA95E9F76801F3E4CF0ED11C88E1D5
:103A700093E09AA389A38FEF8BA38CA38DA38EA32E
:103A800043E450E0BE016F5D7F4FC6010E94D91C28
:103A9000019609F4BFC081E089838A8386E0B82E4D
:103AA000BB821C82D80114966D917D918D919C9161
:103AB00017970E94B0D86D837E838F8398878986FD
:103AC0009A8680E890E09C878B874CE150E0B701B4
:103AD000C6010E946E1CFE0137968AE1DF011D922D
:103AE0008A95E9F74801B8E08B0E911CF401D701E3
:103AF00001900D92BA94E1F740E150E0B701C601A0
:103B00000E946E1CF7011192AA94E9F796E0A92E83
:103B1000B12C40E250E0B701C6010E946E1CF1E0FA
:103B2000AF1AB108B1F783E6898392E89A8393E5E7
:103B30009B838C8385E38D8381E08E837F829DE3ED
:103B4000988797E099878A8786E0F401DE011B96C3
:103B500001900D928A95E1F78CE0898B8A8B6EE358
:103B600073E0CE0143960E9410DBD8011B966C9146
:103B7000CE0149960E949DAAF8016485CE014B961C
:103B80000E949DAAD8011D966C91CE014D960E946F
:103B90009DAA4EE150E0B701C6010E946E1CB3E041
:103BA0007B121EC082E3898384E08A83F8019685B4
:103BB0009B8397859C8390899D8391899E8396E3BF
:103BC0009F838887828D8987838D8A87848D8B8761
:103BD000858D8C874CE050E0B701C6010E946E1CB9
:103BE00087E3898386E08A8391E09B8393E09C83CB
:103BF0008D838FE08E838AE38F838BE388878FEFBB
:103C0000898749E050E0B701C6010E946E1CC601D9
:103C10000E94A81CA6960FB6F894DEBF0FBECDBFBB
:103C2000DF91CF911F910F91FF90EF90DF90CF9098
:103C3000BF90AF909F908F907F9008950F931F93A8
:103C4000CF938C01FC016481758181E20E94981BF5
:103C5000C82F8830F8F480E591E00E9455AA8C2F97
:103C60000E94E813833131F08C2FCF911F910F9177
:103C70000C94231962E070E08C2F0E944614F80126
:103C800084819581EC2FF0E0EE0FFF1FE65CFC4E87
:103C900091838083CF911F910F9108950F931F936C
:103CA000CF93DF931F921F92CDB7DEB7FC0124851F
:103CB0002830E0F48C0180E591E00E9455AA22E0D2
:103CC00030E0AE014F5F5F4F60E170E0F801848546
:103CD0000E94561489819A819827892798270F90E6
:103CE0000F90DF91CF911F910F91089590E080E0A8
:103CF000F6CF0F931F93CF93DF931F921F92CDB7F1
:103D0000DEB7FC0124852830E0F48C0180E591E0E9
:103D10000E9455AA22E030E0AE014F5F5F4F64E0A1
:103D200070E0F80184850E94561489819A81982751
:103D3000892798270F900F90DF91CF911F910F91B6
:103D4000089590E080E0F6CFCF92DF92EF92FF925D
:103D50001F93CF93DF93EC017B016A018C85883040
:103D600048F40E948919882319F08C850E94231930
:103D700088E08C87F70182819381A481B5810097C7
:103D8000A105B10551F490E080E0DF91CF911F9142
:103D9000FF90EF90DF90CF9008958F3F9F4FAF4FF0
:103DA000BF4F89F370E060E081E20E94981B182FFA
:103DB0008C87883040F780E591E00E9455AAA701E2
:103DC0004E5F5F4F24E030E06CE070E0812F0E9496
:103DD000EC13B601812F0E94FD1364E070E0812F87
:103DE0000E9446140E940FB36B017C018C850E94D7
:103DF0008919873111F18C3101F1882321F20E9458
:103E00000FB3AB01BC014C195D096E097F098D85AB
:103E10009E85B0E0A0E084179507A607B70738F0A5
:103E200061E070E080E090E00E94DDB2DFCF8C8541
:103E30000E942F1988E08C87A6CF81E090E0A5CF63
:103E4000FF920F931F93CF93DF93EC018B01FB0144
:103E5000F0800E9487D6F81621F06F2DCE010E94C7
:103E60008FD6F801F1802196CE010E9487D6F816F0
:103E700021F06F2DCE010E948FD6C801DF91CF9126
:103E80001F910F91FF9008959F92AF92BF92CF9292
:103E9000DF92EF92FF920F931F93CF93DF935C011A
:103EA0007B018B01D0E0C0E0F80191908F016501AA
:103EB000CC0EDD1EC6010E9487D6981621F0692D12
:103EC000C6010E948FD62196C430D10569F7C7017B
:103ED000DF91CF911F910F91FF90EF90DF90CF90E6
:103EE000BF90AF909F900895CF92DF92EF92FF9294
:103EF0000F931F93CF93DF93EB017B0124E0E20E3E
:103F0000F11C8B016C01C61AD70AC601800F911FE4
:103F10000E9487D6F80181938F01EE15FF05A9F75E
:103F2000CE01DF91CF911F910F91FF90EF90DF9025
:103F3000CF9008950C948FD6AF92BF92DF92EF92FC
:103F4000FF920F931F93CF93DF93CDB7DEB72E97DA
:103F50000FB6F894DEBF0FBECDBF8C017B015E872C
:103F60004D8750E040E06AE173E00E94AC5622E0E9
:103F7000E216F10409F4B7C366EF79E1C8010E94C3
:103F8000935661EC79E1C8010E94935666EF77E1A0
:103F9000C8010E94935666E670E1C8010E949356DC
:103FA000ED85FE858081D12C882309F493C0ED85B1
:103FB000FE858081882309F47AC027E030E0AE01D5
:103FC0004F5F5F4FBE01685F7F4FCE010D960E942D
:103FD000B1AA049761F3CE0108960E9416CE7C0127
:103FE000D82E85E08E1568F040E150E070E060E08A
:103FF000CE0101960E94E1CBF701FF27E454F74E72
:1040000063838AEF8E0D843048F4CE0101960E94BE
:1040100016CEF701FF27E454F74E838386EF8E0D0B
:10402000843048F4CE0101960E9416CEF701FF2796
:10403000E454F74E878382EF8E0D843048F4CE012E
:1040400001960E9416CEF701FF27E554F74E8083B4
:104050008EEE8E0D843098F4CE0101960E9416CE1D
:10406000F701FF27E454F74E838328E1D21212C0F0
:10407000CE0101960E9416CE8093BE180BC0E6E1D9
:10408000DE120BC0CE0101960E9416CE9093D61878
:104090008093D518DD24D3948ACFF7E1DF12E5CFE2
:1040A000CE0101960E9416CE8093BD18F3CF6CEB23
:1040B000E62E68E1F62E82E890E0F70161917F013B
:1040C0005C01FFEFAF1ABF0A0E949A1FC5018D392C
:1040D000910599F767E370E1C8010E94935666EC79
:1040E00076E1C8010E94935661EC76E1C8010E9416
:1040F00093566CEB76E1C8010E94935669E270E139
:10410000C8010E94935666E776E1C8010E94935663
:104110006CEB76E1C8010E9493565FEBA52E58E147
:10412000B52EF12CE12C62EA76E1C8010E9493568B
:104130004AE050E0B701C8010E9496B068E976E114
:10414000C8010E949356F50141915F0150E070E073
:1041500060E020E1C8010E9433AF61E170E1C80175
:104160000E9493566CE776E1C8010E949356FFEFD8
:10417000EF1AFF0A26E0E216F104A9F666E776E1F7
:10418000C8010E94935660E776E1C8010E949356E9
:1041900061EC76E1C8010E9493566CEB76E1C801B0
:1041A0000E94935664E070E1C8010E94935666E74E
:1041B00076E1C8010E9493566CEB76E1C8010E943B
:1041C000935635ECA32E38E1B32E46E0E42EF12CC5
:1041D00062EA76E1C8010E9493564AE050E0B701D6
:1041E000C8010E9496B068E976E1C8010E94935622
:1041F000F50141915F0150E070E060E02AE0C80104
:104200000E9433AF60E571E1C8010E9493566CE7EC
:1042100076E1C8010E949356FFEFEF1AFF0A2AE0E9
:10422000E216F104A9F666E776E1C8010E9493560A
:1042300060E776E1C8010E94935661EC76E1C8011F
:104240000E9493566CEB76E1C8010E9493566BEF87
:104250007FE0C8010E94935666E776E1C8010E949C
:1042600093566CEB76E1C8010E9493562DECA22E7A
:1042700028E1B22E62EA76E1C8010E9493564AE034
:1042800050E0B701C8010E9496B068E976E1C80124
:104290000E949356F50141915F0150E070E060E0AB
:1042A0002AE0C8010E9433AF60E571E1C8010E94B5
:1042B00093566CE776E1C8010E949356FFEFEF1A20
:1042C000FF0A2EE0E216F104A9F666E776E1C801DE
:1042D0000E94935660E776E1C8010E94935661EC14
:1042E00076E1C8010E9493566CEB76E1C8010E940A
:1042F00093566EEE7FE0C8010E94935666E776E122
:10430000C8010E9493566CEB76E1C8010E94935657
:1043100099ECA92E98E1B92E62EA76E1C8010E94D3
:1043200093564AE050E0B701C8010E9496B068E990
:1043300076E1C8010E949356F50141915F0150E07A
:1043400070E060E02AE0C8010E9433AF60E571E1EF
:10435000C8010E9493566CE776E1C8010E9493560B
:10436000FFEFEF1AFF0A22E1E216F104A9F666E771
:1043700076E1C8010E94935660E776E1C8010E9489
:10438000935661EC76E1C8010E9493566CEB76E19E
:10439000C8010E94935661EE7FE0C8010E949356C7
:1043A00066E776E1C8010E9493566CEB76E1C8019E
:1043B0000E94935681EDA82E88E1B82E62EA76E13C
:1043C000C8010E9493564AE050E0B701C8010E941C
:1043D00096B068E976E1C8010E949356F5014191D3
:1043E0005F0150E070E060E02AE0C8010E9433AF56
:1043F00060E571E1C8010E9493566CE776E1C8015F
:104400000E949356FFEFEF1AFF0A26E1E216F1042D
:10441000A9F666E776E1C8010E94935660E776E167
:10442000C8010E94935661EC76E1C8010E94935640
:104430006CEB76E1C8010E94935666EC7FE0C80100
:104440000E94935666E776E1C8010E9493566CEB92
:1044500076E1C8010E94935662EA76E1C8010E94A3
:1044600093564AE050E066E170E0C8010E9496B0C1
:1044700068E976E1C8010E9493564091D5185091A1
:10448000D61870E060E02AE0C8010E9433AF6CE704
:1044900076E1C8010E94935666E776E1C8010E9462
:1044A000935660E776E1C8010E94935661EC76E18D
:1044B000C8010E9493566CEB76E1C8010E949356A6
:1044C0006BEB7FE0C8010E94935666E776E1C80176
:1044D0000E9493566CEB76E1C8010E94935665E901
:1044E0007FE0C8010E94935665E473E0C8010E9412
:1044F000D0B08091BD18813029F06CED70E1C80119
:104500000E94935660E97FE0C8010E94935665E9D6
:104510007FE0C8010E94935668E473E0C8010E94DE
:10452000D0B08091BD18813029F46CED70E1C801E4
:104530000E9493566CE87FE0C8010E94935666E79C
:1045400076E1C8010E94935660E776E1C8010E94B7
:10455000935661EC76E1C8010E9493566CEB76E1CC
:10456000C8010E9493566DE57FE0C8010E949356F2
:1045700066E776E1C8010E9493566CEB76E1C801CC
:104580000E94935662EA76E1C8010E9493564AE07F
:1045900050E068E170E0C8010E9496B068E976E1F9
:1045A000C8010E9493564091BE1850E070E060E050
:1045B0002AE0C8010E9433AF60E571E1C8010E94A2
:1045C00093566CE776E1C8010E94935666E776E160
:1045D000C8010E94935660E776E1C8010E94935695
:1045E0008091BD18813009F063C061EC76E1C801AB
:1045F0000E9493566CEB76E1C8010E94935660E4EA
:104600007FE0C8010E94935666E776E1C8010E94E8
:1046100093566CEB76E1C8010E9493564091CC1101
:1046200050E070E060E02AE0C8010E9433AF66E726
:1046300076E1C8010E94935660E776E1C8010E94C6
:10464000935661EC76E1C8010E9493566CEB76E1DB
:10465000C8010E94935660E27FE0C8010E94935611
:1046600066E776E1C8010E9493566CEB76E1C801DB
:104670000E9493566091C8117091C9118091CA111E
:104680009091CB1128EE33E040E050E00E94ADD68F
:10469000BA01A9012AE0C8010E9433AF66E776E1BA
:1046A000C8010E94935660E776E1C8010E949356C4
:1046B00067E676E1C8010E94935665E476E1C80199
:1046C0000E949356DD2029F067E97EE0C8010E9430
:1046D000935661E875E1C8010E94935669ED7DE14A
:1046E000C8010E9493562E960FB6F894DEBF0FBEF7
:1046F000CDBFDF91CF911F910F91FF90EF90DF9091
:10470000BF90AF9008950C9487D60895089520E047
:10471000261750F4DC01ED91FD91CD01E417F5076A
:1047200011F02F5FF5CF322F832F0895CF92DF92B4
:10473000EF92FF920F931F93CF93DF938C016B0146
:10474000FB01E480F5806E2D0E949A1FD0E0C0E04E
:10475000FF240F5F1F4FCE15DF05BCF4F6018481E7
:104760009581C817D90778F480819181009759F015
:104770008C0F9D1FFC016081C8018C0F9D1F0E9442
:104780009A1F2196E8CF60E0F7CFDF91CF911F917C
:104790000F91FF90EF90DF90CF900895EF92FF92EE
:1047A0000F931F93CF93DF93CDB7DEB762970FB60A
:1047B000F894DEBF0FBECDBF8C017B015A8B498BB5
:1047C00050E040E06AE173E00E94AC5682E0E816F7
:1047D000F10409F4D1C166EF79E1C8010E94935652
:1047E00061EC79E1C8010E94935666EF77E1C80158
:1047F0000E94935664EC73E1C8010E949356E989C4
:10480000FA898081F12C882309F453C0E989FA8957
:1048100080818823B1F12BE030E0AE014F5F5F4F24
:10482000BE01645F7F4FCE0141960E94B1AA0497FA
:1048300069F3CE010C960E9416CE81110AC0BE010A
:104840006F5F7F4F81EF98E10E9498ADFF24F39452
:10485000DDCF813031F4BE016F5F7F4F87EF98E18C
:10486000F3CF823031F4BE016F5F7F4F85EE98E168
:10487000EBCF833059F7BE016F5F7F4F8BEE98E12E
:10488000E3CF61EF78E18CE291E00E94962367EF3D
:1048900078E18EE591E00E94962365EE78E180E96B
:1048A00091E00E9496236BEE78E182EC91E00E9409
:1048B000962363E973E1C8010E94935666EC76E1A2
:1048C000C8010E94935661EC76E1C8010E9493569C
:1048D0006CEB76E1C8010E9493566EE773E1C80164
:1048E0000E94935666E776E1C8010E94935660E7FE
:1048F00076E1C8010E94935661EC76E1C8010E94FE
:1049000093566CEB76E1C8010E94935663E773E11E
:10491000C8010E94935666E776E1C8010E9493564B
:104920006CEB76E1C8010E94935662EA76E1C80119
:104930000E9493564AE050E070E060E0C8010E9497
:1049400096B068E976E1C8010E94935661EF78E17C
:10495000C8010E94D8B069E573E1C8010E9493566E
:104960006CE776E1C8010E94935666E776E1C801DC
:104970000E94935660E776E1C8010E94935661EC6D
:1049800076E1C8010E9493566CEB76E1C8010E9463
:1049900093566EE473E1C8010E94935666E776E190
:1049A000C8010E9493566CEB76E1C8010E949356B1
:1049B00062EA76E1C8010E9493564AE050E061E065
:1049C00070E0C8010E9496B068E976E1C8010E94D3
:1049D000935667EF78E1C8010E94D8B069E573E1AA
:1049E000C8010E9493566CE776E1C8010E94935675
:1049F00066E776E1C8010E94935660E776E1C80158
:104A00000E94935661EC76E1C8010E9493566CEBCC
:104A100076E1C8010E94935668E373E1C8010E94E1
:104A2000935666E776E1C8010E94935660E776E107
:104A3000C8010E94935661EC76E1C8010E9493562A
:104A40006CEB76E1C8010E94935663E773E1C801FD
:104A50000E94935666E776E1C8010E9493566CEB7C
:104A600076E1C8010E94935662EA76E1C8010E948D
:104A700093564AE050E062E070E0C8010E9496B0B0
:104A800068E976E1C8010E94935665EE78E1C801B5
:104A90000E94D8B069E573E1C8010E9493566CE7A3
:104AA00076E1C8010E94935666E776E1C8010E944C
:104AB000935660E776E1C8010E94935661EC76E177
:104AC000C8010E9493566CEB76E1C8010E94935690
:104AD0006EE473E1C8010E94935666E776E1C8016F
:104AE0000E9493566CEB76E1C8010E94935662EAED
:104AF00076E1C8010E9493564AE050E063E070E01E
:104B0000C8010E9496B068E976E1C8010E949356F8
:104B10006BEE78E1C8010E94D8B069E573E1C80185
:104B20000E9493566CE776E1C8010E94935666E7AF
:104B300076E1C8010E94935660E776E1C8010E94C1
:104B4000935667E676E1C8010E94935665E476E1E4
:104B5000C8010E949356FF2029F064EF72E1C8015A
:104B60000E94935661E875E1C8010E94935669ED71
:104B70007DE1C8010E94935662960FB6F894DEBF9D
:104B80000FBECDBFDF91CF911F910F91FF90EF909E
:104B90000895EF92FF920F931F93CF93DF93CDB7BA
:104BA000DEB7E1970FB6F894DEBF0FBECDBF8C0124
:104BB0007B0159AB48AB50E040E06AE173E00E94F2
:104BC000AC5682E0E816F10451F166EF79E1C801D4
:104BD0000E94935661EC79E1C8010E94935666EFFA
:104BE00077E1C8010E94935669E377E1C8010E940A
:104BF000935684ED90E00E94832391E0811101C0DF
:104C000090E09093D3128823B9F06BE473E0C8016D
:104C10000E94D0B069ED7DE1C8010E949356E196F3
:104C20000FB6F894DEBF0FBECDBFDF91CF911F91BD
:104C30000F91FF90EF90089568E573E0C8010E941E
:104C4000D0B062E277E1C8010E9493566091CB1226
:104C50007091CC12CE018A960E9416AD6091C91255
:104C60007091CA12CE0184960E9416AD6091C7124F
:104C70007091C812CE014E960E9416AD6091C51279
:104C80007091C612CE0148960E9416AD6091C31273
:104C90007091C412CE0142960E9416AD6091C1126D
:104CA0007091C212CE0101960E9416ADBE016F5FD7
:104CB0007F4FCE010C960E94ADAE6BE17DE0CE0140
:104CC0000C960E9414AEBE016E5E7F4F0E942AAE0B
:104CD0006BE17DE00E9414AEBE01685E7F4F0E94D2
:104CE0002AAE6BE17DE00E9414AEBE01625E7F4F92
:104CF0000E942AAE6BE17DE00E9414AEBE016C5DA5
:104D00007F4F0E942AAE6BE17DE00E9414AEBE018F
:104D1000665D7F4F0E942AAEBC01C8010E94D8B0D8
:104D2000CE010C960E94A5AECE0101960E94A5AEC2
:104D3000CE0142960E94A5AECE0148960E94A5AE35
:104D4000CE014E960E94A5AECE0184960E94A5AEDD
:104D5000CE018A960E94A5AE63E373E0C8010E946B
:104D6000D0B08091CE1281111CC068EF76E1C801ED
:104D70000E9493568091D1129091D21240E45BE050
:104D8000481B590B569547955695479570E060E03E
:104D90002AE0C8010E9433AF63E373E0C8010E94B8
:104DA000D0B0E8A9F9A98081F12C882309F484C046
:104DB000E8A9F9A98081882309F441C02BE030E0FB
:104DC000AE014F5F5F4FBE01645F7F4FCE01C09663
:104DD0000E94B1AA049761F3CE010C960E9416CEF0
:104DE00081110FC040E150E070E060E0CE0101961B
:104DF0000E94E1CB7093CE116093CD11FF24F39408
:104E0000D7CF813069F440E150E070E060E0CE013E
:104E100001960E94E1CB7093D0116093CF11EECF39
:104E2000823061F740E150E070E060E0CE01019631
:104E30000E94E1CB7093D2116093D111DFCF8091AA
:104E4000C1129091C2124091C3125091C4129A01A2
:104E5000220F331F240F351F281B390B4091CD1112
:104E60005091CE114217530711F52091C91230917C
:104E7000CA124996880F991F820F931F4091CF1134
:104E80005091D0114817590791F4295B3F4F8091F9
:104E9000CB129091CC12880F991F281B390B80914F
:104EA000D1119091D21165E68217930709F060E065
:104EB00084ED90E00E949A1F6EEC76E1C8010E949A
:104EC000935666EC76E1C8010E94935661EC76E158
:104ED000C8010E9493566CEB76E1C8010E9493567C
:104EE00062EA76E1C8010E9493564AE050E070E021
:104EF00060E0C8010E9496B068E976E1C8010E94AE
:104F000093566091CD117091CE1140E150E0C801EF
:104F10000E9496B060E876E1C8010E9493566CE763
:104F200076E1C8010E94935666E776E1C8010E94C7
:104F300093566CEB76E1C8010E94935661E673E0EC
:104F4000C8010E94D0B066E776E1C8010E9493567E
:104F50006CEB76E1C8010E94935662EA76E1C801E3
:104F60000E9493564AE050E061E070E0C8010E9460
:104F700096B068E976E1C8010E9493566091CF111E
:104F80007091D01140E150E0C8010E9496B060E8F5
:104F900076E1C8010E9493566CE776E1C8010E9451
:104FA000935666E776E1C8010E9493566CEB76E172
:104FB000C8010E94935661E673E0C8010E94D0B018
:104FC00066E776E1C8010E9493566CEB76E1C80172
:104FD0000E94935662EA76E1C8010E9493564AE025
:104FE00050E062E070E0C8010E9496B068E976E1A6
:104FF000C8010E9493566091D1117091D21140E185
:1050000050E0C8010E9496B060E876E1C8010E94B5
:1050100093566CE776E1C8010E94935666E776E105
:10502000C8010E94935660E776E1C8010E9493563A
:1050300067E676E1C8010E94935665E476E1C8010F
:105040000E949356FF2071F08091D31281110AC003
:105050006EEF75E1C8010E94935668E875E1C801DA
:105060000E94935661E875E1C8010E949356D2CD23
:105070000F931F93CF93DF93CDB7DEB762970FB631
:10508000F894DEBF0FBECDBF8C01CE0107960E9403
:1050900016ADB801CE0101960E94ADAE63E673E095
:1050A000CE0101960E9414AEBE01695F7F4F0E943F
:1050B0002AAEBC01CE010D960E94ADAECE01019686
:1050C0000E94A5AECE0107960E94A5AE8D859E8555
:1050D0000E943512CE010D960E94A5AE62960FB6C3
:1050E000F894DEBF0FBECDBFDF91CF911F910F911E
:1050F00008950F931F93CF93DF93CDB7DEB76297D9
:105100000FB6F894DEBF0FBECDBF8C01693681E0CB
:10511000780714F068E671E077FF02C070E060E0A5
:10512000CE0107960E9416ADB801CE0101960E94ED
:10513000ADAE69E673E0CE0101960E9414AEBE01E9
:10514000695F7F4F0E942AAEBC01CE010D960E947E
:10515000ADAECE0101960E94A5AECE0107960E948B
:10516000A5AE8D859E850E943512CE010D960E94BA
:10517000A5AE62960FB6F894DEBF0FBECDBFDF912D
:10518000CF911F910F9108950F931F93CF93DF93AA
:10519000CDB7DEB7AD970FB6F894DEBF0FBECDBF6B
:1051A0008C01CB01BA011BA21AA21DA21CA21FA234
:1051B0001EA22AE0AE014F5F5F4F0E94B2CEBE0139
:1051C0006F5F7F4FCE0182960E940CADB801CE0179
:1051D00001960E94ADAE69E673E0CE0101960E9491
:1051E00014AEBE016E5D7F4F0E942AAEBC01CE019F
:1051F00088960E94ADAECE0101960E94A5AECE016A
:1052000082960E94A5AE88A599A50E943512CE016E
:1052100088960E94A5AEAD960FB6F894DEBF0FBE7D
:10522000CDBFDF91CF911F910F9108950F931F93E1
:10523000CF93DF93CDB7DEB72C970FB6F894DEBFD0
:105240000FBECDBF8B01BC01CE0101960E94ADAE59
:105250006FE673E0CE0101960E9414AEB8010E9481
:105260002AAE66E473E00E9414AEBC01CE0107963C
:105270000E94ADAECE0101960E94A5AE8F819885A9
:105280000E943512CE0107960E94A5AE2C960FB64D
:10529000F894DEBF0FBECDBFDF91CF911F910F916C
:1052A0000895EF92FF920F931F93CF93DF93CDB7A3
:1052B000DEB768970FB6F894DEBF0FBECDBF8C0186
:1052C0007B01588F4F8B50E040E06AE173E00E9411
:1052D000AC5682E0E816F10409F476C266EF79E193
:1052E000C8010E94935661EC79E1C8010E9493566F
:1052F00066EF77E1C8010E94935669ED72E1C8013B
:105300000E949356F090CE1267EE73E1F11054C2F2
:10531000EF89F88D8081882309F4ABC0EF89F88D7F
:105320008081882309F487C02BE030E0AE014F5F15
:105330005F4FBE016E5E7F4FCE0147960E94B1AABD
:10534000049761F3CE0142960E9416CE81111AC0D5
:10535000BE016F5F7F4FCE010C960E94B6AECE01AC
:105360000C960E94D7AD6093D4127093D51280939F
:10537000D6129093D712CE010C960E94A5AEFF24B0
:10538000F394CCCF8130A1F4BE016F5F7F4FCE018B
:105390000C960E94B6AECE010C960E94D7AD6093DB
:1053A000D8127093D9128093DA129093DB12E3CF64
:1053B0008230A1F4BE016F5F7F4FCE010C960E9438
:1053C000B6AECE010C960E94D7AD6093DC127093FE
:1053D000DD128093DE129093DF12CDCF8330A1F4E3
:1053E000BE016F5F7F4FCE010C960E94B6AECE011C
:1053F0000C960E94D7AD6093E0127093E1128093F7
:10540000E2129093E312B7CF843009F0B8CFBE0117
:105410006F5F7F4FCE010C960E94B6AECE010C9608
:105420000E94D7AD6093E4127093E5128093E61268
:105430009093E712A0CF64ED72E184E690E00E94C1
:10544000441F68ED72E188E690E00E94441F60EE20
:1054500072E18CE690E00E94441F64EE72E180E706
:1054600090E00E94441F6CED72E184E790E00E949E
:10547000441F6EEA72E1C8010E94935666EC76E121
:10548000C8010E94935661EC76E1C8010E949356D0
:105490006CEB76E1C8010E94935662EA72E1C801A2
:1054A0000E94935666E776E1C8010E9493566CEB22
:1054B00076E1C8010E94935662EA76E1C8010E9433
:1054C00093564AE050E070E060E0C8010E9496B058
:1054D00068E976E1C8010E9493564091D412509138
:1054E000D5126091D6127091D712C8010E947FAF79
:1054F00069E573E1C8010E9493566CE776E1C80143
:105500000E9493566EE972E1C8010E94935666E7C5
:1055100076E1C8010E94935660E776E1C8010E94D7
:10552000935661EC76E1C8010E9493566CEB76E1EC
:10553000C8010E94935660E972E1C8010E94935627
:1055400066E776E1C8010E9493566CEB76E1C801EC
:105550000E94935662EA76E1C8010E9493564AE09F
:1055600050E061E070E0C8010E9496B068E976E121
:10557000C8010E9493564091D8125091D91260915F
:10558000DA127091DB12C8010E947FAF69E573E106
:10559000C8010E9493566CE776E1C8010E949356B9
:1055A0006EE972E1C8010E94935666E776E1C80190
:1055B0000E94935660E776E1C8010E94935661EC21
:1055C00076E1C8010E9493566CEB76E1C8010E9417
:1055D000935664E872E1C8010E94935666E776E14B
:1055E000C8010E9493566CEB76E1C8010E94935665
:1055F00062EA76E1C8010E9493564AE050E062E018
:1056000070E0C8010E9496B068E976E1C8010E9486
:1056100093564091DC125091DD126091DE12709130
:10562000DF12C8010E947FAF69E573E1C8010E94E3
:1056300093566CE776E1C8010E9493566EE972E1D9
:10564000C8010E94935666E776E1C8010E9493560E
:1056500060E776E1C8010E94935661EC76E1C801EB
:105660000E9493566CEB76E1C8010E9493566FE658
:1056700072E1C8010E94935666E776E1C8010E9474
:1056800093566CEB76E1C8010E94935662EA76E18C
:10569000C8010E9493564AE050E063E070E0C80100
:1056A0000E9496B068E976E1C8010E949356409145
:1056B000E0125091E1126091E2127091E312C80180
:1056C0000E947FAF69E573E1C8010E9493566CE7C1
:1056D00076E1C8010E9493566EE972E1C8010E940A
:1056E000935666E776E1C8010E94935660E776E13B
:1056F000C8010E94935661EC76E1C8010E9493565E
:105700006CEB76E1C8010E9493566BE572E1C8012B
:105710000E94935666E776E1C8010E9493566CEBAF
:1057200076E1C8010E94935662EA76E1C8010E94C0
:1057300093564AE050E064E070E0C8010E9496B0E1
:1057400068E976E1C8010E9493564091E4125091B5
:10575000E5126091E6127091E712C8010E947FAFD6
:1057600069E573E1C8010E9493566CE776E1C801D0
:105770000E9493566EE972E1C8010E94935666E753
:1057800076E1C8010E94935660E776E1C8010E9465
:10579000935667E676E1C8010E94935665E476E188
:1057A000C8010E949356FF2029F067E172E1C80109
:1057B0000E94935661E875E1C8010E94935669ED15
:1057C0007DE1C8010E94935668960FB6F894DEBF3B
:1057D0000FBECDBFDF91CF911F910F91FF90EF9042
:1057E0000895EF92FF920F931F93CF93DF93CDB75E
:1057F000DEB768970FB6F894DEBF0FBECDBF8C0141
:105800007B01588F4F8B50E040E06AE173E00E94CB
:10581000AC5682E0E816F10409F476C266EF79E14D
:10582000C8010E94935661EC79E1C8010E94935629
:1058300066EF77E1C8010E9493566CEF71E1C801F1
:105840000E949356F090CE1267EE73E1F11054C2AD
:10585000EF89F88D8081882309F4ABC0EF89F88D3A
:105860008081882309F487C02BE030E0AE014F5FD0
:105870005F4FBE016E5E7F4FCE0147960E94B1AA78
:10588000049761F3CE0142960E9416CE81111AC090
:10589000BE016F5F7F4FCE010C960E94B6AECE0167
:1058A0000C960E94D7AD6093E8127093E912809332
:1058B000EA129093EB12CE010C960E94A5AEFF2443
:1058C000F394CCCF8130A1F4BE016F5F7F4FCE0146
:1058D0000C960E94B6AECE010C960E94D7AD609396
:1058E000EC127093ED128093EE129093EF12E3CFCF
:1058F0008230A1F4BE016F5F7F4FCE010C960E94F3
:10590000B6AECE010C960E94D7AD6093F0127093A4
:10591000F1128093F2129093F312CDCF8330A1F461
:10592000BE016F5F7F4FCE010C960E94B6AECE01D6
:105930000C960E94D7AD6093F4127093F512809389
:10594000F6129093F712B7CF843009F0B8CFBE01AA
:105950006F5F7F4FCE010C960E94B6AECE010C96C3
:105960000E94D7AD6093F8127093F9128093FA12E7
:105970009093FB12A0CF68EE72E190E080E00E946D
:10598000441F6CEE72E184E090E00E94441F64EFDB
:1059900072E188E090E00E94441F68EF72E18CE0C1
:1059A00090E00E94441F60EF72E180E190E00E946D
:1059B000441F61ED71E1C8010E94935666EC76E1E7
:1059C000C8010E94935661EC76E1C8010E9493568B
:1059D0006CEB76E1C8010E94935662EA72E1C8015D
:1059E0000E94935666E776E1C8010E9493566CEBDD
:1059F00076E1C8010E94935662EA76E1C8010E94EE
:105A000093564AE050E070E060E0C8010E9496B012
:105A100068E976E1C8010E9493564091E8125091DE
:105A2000E9126091EA127091EB12C8010E947FAFF7
:105A300069E573E1C8010E9493566CE776E1C801FD
:105A40000E9493566EE972E1C8010E94935666E780
:105A500076E1C8010E94935660E776E1C8010E9492
:105A6000935661EC76E1C8010E9493566CEB76E1A7
:105A7000C8010E94935660E972E1C8010E949356E2
:105A800066E776E1C8010E9493566CEB76E1C801A7
:105A90000E94935662EA76E1C8010E9493564AE05A
:105AA00050E061E070E0C8010E9496B068E976E1DC
:105AB000C8010E9493564091EC125091ED126091F2
:105AC000EE127091EF12C8010E947FAF69E573E199
:105AD000C8010E9493566CE776E1C8010E94935674
